{
  "contractName": "Story",
  "abi": [
    {
      "inputs": [],
      "stateMutability": "nonpayable",
      "type": "constructor"
    },
    {
      "anonymous": false,
      "inputs": [
        {
          "indexed": false,
          "internalType": "uint256",
          "name": "milestoneID",
          "type": "uint256"
        },
        {
          "indexed": false,
          "internalType": "string",
          "name": "description",
          "type": "string"
        },
        {
          "indexed": false,
          "internalType": "string",
          "name": "name",
          "type": "string"
        },
        {
          "indexed": false,
          "internalType": "string",
          "name": "question",
          "type": "string"
        }
      ],
      "name": "NewMilestone",
      "type": "event"
    },
    {
      "anonymous": false,
      "inputs": [
        {
          "indexed": false,
          "internalType": "uint256",
          "name": "proposalID",
          "type": "uint256"
        },
        {
          "indexed": false,
          "internalType": "uint256",
          "name": "nextMilestone",
          "type": "uint256"
        },
        {
          "indexed": false,
          "internalType": "string",
          "name": "description",
          "type": "string"
        },
        {
          "indexed": false,
          "internalType": "string",
          "name": "name",
          "type": "string"
        }
      ],
      "name": "NewProposal",
      "type": "event"
    },
    {
      "anonymous": false,
      "inputs": [
        {
          "indexed": false,
          "internalType": "address",
          "name": "voter",
          "type": "address"
        },
        {
          "indexed": false,
          "internalType": "uint256",
          "name": "proposal",
          "type": "uint256"
        }
      ],
      "name": "Voted",
      "type": "event"
    },
    {
      "anonymous": false,
      "inputs": [
        {
          "indexed": false,
          "internalType": "uint256",
          "name": "newMilestone",
          "type": "uint256"
        },
        {
          "indexed": false,
          "internalType": "uint256",
          "name": "proposalID",
          "type": "uint256"
        }
      ],
      "name": "Win",
      "type": "event"
    },
    {
      "inputs": [
        {
          "internalType": "address",
          "name": "",
          "type": "address"
        }
      ],
      "name": "Voters",
      "outputs": [
        {
          "internalType": "bool",
          "name": "voted",
          "type": "bool"
        },
        {
          "internalType": "uint256",
          "name": "vote",
          "type": "uint256"
        },
        {
          "internalType": "bool",
          "name": "whitelist",
          "type": "bool"
        }
      ],
      "stateMutability": "view",
      "type": "function",
      "constant": true
    },
    {
      "inputs": [
        {
          "internalType": "uint256",
          "name": "",
          "type": "uint256"
        }
      ],
      "name": "Whitelist",
      "outputs": [
        {
          "internalType": "address",
          "name": "",
          "type": "address"
        }
      ],
      "stateMutability": "view",
      "type": "function",
      "constant": true
    },
    {
      "inputs": [],
      "name": "currentMilestone",
      "outputs": [
        {
          "internalType": "uint256",
          "name": "",
          "type": "uint256"
        }
      ],
      "stateMutability": "view",
      "type": "function",
      "constant": true
    },
    {
      "inputs": [],
      "name": "currentVotes",
      "outputs": [
        {
          "internalType": "uint256",
          "name": "",
          "type": "uint256"
        }
      ],
      "stateMutability": "view",
      "type": "function",
      "constant": true
    },
    {
      "inputs": [
        {
          "internalType": "uint256",
          "name": "",
          "type": "uint256"
        }
      ],
      "name": "voterList",
      "outputs": [
        {
          "internalType": "address",
          "name": "",
          "type": "address"
        }
      ],
      "stateMutability": "view",
      "type": "function",
      "constant": true
    },
    {
      "inputs": [
        {
          "internalType": "uint256",
          "name": "_milestone",
          "type": "uint256"
        },
        {
          "internalType": "uint256",
          "name": "_nextMilestone",
          "type": "uint256"
        },
        {
          "internalType": "string",
          "name": "_message",
          "type": "string"
        },
        {
          "internalType": "string",
          "name": "_name",
          "type": "string"
        }
      ],
      "name": "createProposal",
      "outputs": [],
      "stateMutability": "nonpayable",
      "type": "function"
    },
    {
      "inputs": [
        {
          "internalType": "uint256",
          "name": "_milestoneID",
          "type": "uint256"
        },
        {
          "internalType": "string",
          "name": "_message",
          "type": "string"
        },
        {
          "internalType": "string",
          "name": "_name",
          "type": "string"
        },
        {
          "internalType": "string",
          "name": "_question",
          "type": "string"
        }
      ],
      "name": "createMilestone",
      "outputs": [],
      "stateMutability": "nonpayable",
      "type": "function"
    },
    {
      "inputs": [
        {
          "internalType": "address",
          "name": "_user",
          "type": "address"
        }
      ],
      "name": "whiteList",
      "outputs": [],
      "stateMutability": "nonpayable",
      "type": "function"
    },
    {
      "inputs": [
        {
          "internalType": "uint256",
          "name": "_proposalID",
          "type": "uint256"
        }
      ],
      "name": "vote",
      "outputs": [],
      "stateMutability": "nonpayable",
      "type": "function"
    },
    {
      "inputs": [
        {
          "internalType": "uint256",
          "name": "proposalNum",
          "type": "uint256"
        }
      ],
      "name": "getProposalNextMilestone",
      "outputs": [
        {
          "internalType": "uint256",
          "name": "",
          "type": "uint256"
        }
      ],
      "stateMutability": "view",
      "type": "function",
      "constant": true
    },
    {
      "inputs": [
        {
          "internalType": "uint256",
          "name": "proposalNum",
          "type": "uint256"
        }
      ],
      "name": "getProposalDescription",
      "outputs": [
        {
          "internalType": "string",
          "name": "",
          "type": "string"
        }
      ],
      "stateMutability": "view",
      "type": "function",
      "constant": true
    },
    {
      "inputs": [
        {
          "internalType": "uint256",
          "name": "proposalNum",
          "type": "uint256"
        }
      ],
      "name": "getProposalName",
      "outputs": [
        {
          "internalType": "string",
          "name": "",
          "type": "string"
        }
      ],
      "stateMutability": "view",
      "type": "function",
      "constant": true
    },
    {
      "inputs": [],
      "name": "getMilestoneDescription",
      "outputs": [
        {
          "internalType": "string",
          "name": "",
          "type": "string"
        }
      ],
      "stateMutability": "view",
      "type": "function",
      "constant": true
    },
    {
      "inputs": [],
      "name": "getMilestoneQuestion",
      "outputs": [
        {
          "internalType": "string",
          "name": "",
          "type": "string"
        }
      ],
      "stateMutability": "view",
      "type": "function",
      "constant": true
    },
    {
      "inputs": [],
      "name": "getMilestoneName",
      "outputs": [
        {
          "internalType": "string",
          "name": "",
          "type": "string"
        }
      ],
      "stateMutability": "view",
      "type": "function",
      "constant": true
    }
  ],
  "bytecode": "0x6080604052600060045560006005556040518060a0016040528060008152602001600081526020016040518060400160405280600481526020017f6e756c6c0000000000000000000000000000000000000000000000000000000081525081526020016040518060400160405280600481526020017f6e756c6c0000000000000000000000000000000000000000000000000000000081525081526020016000815250600760008201518160000155602082015181600101556040820151816002019080519060200190620000d692919062000156565b506060820151816003019080519060200190620000f592919062000156565b506080820151816004015550503480156200010f57600080fd5b50336000806101000a81548173ffffffffffffffffffffffffffffffffffffffff021916908373ffffffffffffffffffffffffffffffffffffffff160217905550620001fc565b828054600181600116156101000203166002900490600052602060002090601f016020900481019282601f106200019957805160ff1916838001178555620001ca565b82800160010185558215620001ca579182015b82811115620001c9578251825591602001919060010190620001ac565b5b509050620001d99190620001dd565b5090565b5b80821115620001f8576000816000905550600101620001de565b5090565b612bb3806200020c6000396000f3fe608060405234801561001057600080fd5b50600436106100f55760003560e01c806350e2e8af11610097578063c1edc38211610066578063c1edc3821461065e578063c6072ade146106e1578063d2957f6b14610764578063fdedaa8a146108ca576100f5565b806350e2e8af146103d75780639910632d1461042f578063994ba4d214610622578063b030481314610640576100f5565b806330670605116100d35780633067060514610211578063372c12b114610294578063429b92bf146102d857806343feac581461037f576100f5565b80630121b93f146100fa578063229acb1714610128578063238d7651146101cf575b600080fd5b6101266004803603602081101561011057600080fd5b8101908080359060200190929190505050610934565b005b6101546004803603602081101561013e57600080fd5b8101908080359060200190929190505050610c92565b6040518080602001828103825283818151815260200191508051906020019080838360005b83811015610194578082015181840152602081019050610179565b50505050905090810190601f1680156101c15780820380516001836020036101000a031916815260200191505b509250505060405180910390f35b6101fb600480360360208110156101e557600080fd5b8101908080359060200190929190505050610f7d565b6040518082815260200191505060405180910390f35b6102196110a0565b6040518080602001828103825283818151815260200191508051906020019080838360005b8381101561025957808201518184015260208101905061023e565b50505050905090810190601f1680156102865780820380516001836020036101000a031916815260200191505b509250505060405180910390f35b6102d6600480360360208110156102aa57600080fd5b81019080803573ffffffffffffffffffffffffffffffffffffffff169060200190929190505050611160565b005b610304600480360360208110156102ee57600080fd5b810190808035906020019092919050505061127e565b6040518080602001828103825283818151815260200191508051906020019080838360005b83811015610344578082015181840152602081019050610329565b50505050905090810190601f1680156103715780820380516001836020036101000a031916815260200191505b509250505060405180910390f35b6103ab6004803603602081101561039557600080fd5b8101908080359060200190929190505050611569565b604051808273ffffffffffffffffffffffffffffffffffffffff16815260200191505060405180910390f35b610403600480360360208110156103ed57600080fd5b81019080803590602001909291905050506115a5565b604051808273ffffffffffffffffffffffffffffffffffffffff16815260200191505060405180910390f35b6106206004803603608081101561044557600080fd5b81019080803590602001909291908035906020019064010000000081111561046c57600080fd5b82018360208201111561047e57600080fd5b803590602001918460018302840111640100000000831117156104a057600080fd5b91908080601f016020809104026020016040519081016040528093929190818152602001838380828437600081840152601f19601f8201169050808301925050505050505091929192908035906020019064010000000081111561050357600080fd5b82018360208201111561051557600080fd5b8035906020019184600183028401116401000000008311171561053757600080fd5b91908080601f016020809104026020016040519081016040528093929190818152602001838380828437600081840152601f19601f8201169050808301925050505050505091929192908035906020019064010000000081111561059a57600080fd5b8201836020820111156105ac57600080fd5b803590602001918460018302840111640100000000831117156105ce57600080fd5b91908080601f016020809104026020016040519081016040528093929190818152602001838380828437600081840152601f19601f8201169050808301925050505050505091929192905050506115e1565b005b61062a611ee6565b6040518082815260200191505060405180910390f35b610648611eec565b6040518082815260200191505060405180910390f35b610666611ef2565b6040518080602001828103825283818151815260200191508051906020019080838360005b838110156106a657808201518184015260208101905061068b565b50505050905090810190601f1680156106d35780820380516001836020036101000a031916815260200191505b509250505060405180910390f35b6106e9611fb2565b6040518080602001828103825283818151815260200191508051906020019080838360005b8381101561072957808201518184015260208101905061070e565b50505050905090810190601f1680156107565780820380516001836020036101000a031916815260200191505b509250505060405180910390f35b6108c86004803603608081101561077a57600080fd5b810190808035906020019092919080359060200190929190803590602001906401000000008111156107ab57600080fd5b8201836020820111156107bd57600080fd5b803590602001918460018302840111640100000000831117156107df57600080fd5b91908080601f016020809104026020016040519081016040528093929190818152602001838380828437600081840152601f19601f8201169050808301925050505050505091929192908035906020019064010000000081111561084257600080fd5b82018360208201111561085457600080fd5b8035906020019184600183028401116401000000008311171561087657600080fd5b91908080601f016020809104026020016040519081016040528093929190818152602001838380828437600081840152601f19601f820116905080830192505050505050509192919290505050612072565b005b61090c600480360360208110156108e057600080fd5b81019080803573ffffffffffffffffffffffffffffffffffffffff16906020019092919050505061267f565b6040518084151581526020018381526020018215158152602001935050505060405180910390f35b670de0b6b3a76400003373ffffffffffffffffffffffffffffffffffffffff163110156109c9576040517f08c379a000000000000000000000000000000000000000000000000000000000815260040180806020018281038252601c8152602001807f496e73756666696369656e7420566f74696e672042616c616e63652e0000000081525060200191505060405180910390fd5b60011515600160003373ffffffffffffffffffffffffffffffffffffffff1673ffffffffffffffffffffffffffffffffffffffff16815260200190815260200160002060000160009054906101000a900460ff1615151415610a93576040517f08c379a00000000000000000000000000000000000000000000000000000000081526004018080602001828103825260178152602001807f596f75206861766520616c726561647920766f7465642100000000000000000081525060200191505060405180910390fd5b60018060003373ffffffffffffffffffffffffffffffffffffffff1673ffffffffffffffffffffffffffffffffffffffff16815260200190815260200160002060000160006101000a81548160ff0219169083151502179055506002339080600181540180825580915050600190039060005260206000200160009091909190916101000a81548173ffffffffffffffffffffffffffffffffffffffff021916908373ffffffffffffffffffffffffffffffffffffffff1602179055506000811415610b8f576001600360055481548110610b6a57fe5b9060005260206000209060160201600001600101600001600082825401925050819055505b6001811415610bce576001600360055481548110610ba957fe5b9060005260206000209060160201600001600601600001600082825401925050819055505b6002811415610c0d576001600360055481548110610be857fe5b9060005260206000209060160201600001600b01600001600082825401925050819055505b600160046000828254019250508190555060016004541415610c3a57610c316126c3565b60006004819055505b7f4d99b957a2bc29a30ebd96a7be8e68fe50a3c701db28a91436490b7d53870ca43382604051808373ffffffffffffffffffffffffffffffffffffffff1681526020018281526020019250505060405180910390a150565b606060038210610d0a576040517f08c379a00000000000000000000000000000000000000000000000000000000081526004018080602001828103825260148152602001807f56616c756520646f6573206e6f7420657869737400000000000000000000000081525060200191505060405180910390fd5b6000821415610dd957600360055481548110610d2257fe5b90600052602060002090601602016000016001016002018054600181600116156101000203166002900480601f016020809104026020016040519081016040528092919081815260200182805460018160011615610100020316600290048015610dcd5780601f10610da257610100808354040283529160200191610dcd565b820191906000526020600020905b815481529060010190602001808311610db057829003601f168201915b50505050509050610f78565b6001821415610ea857600360055481548110610df157fe5b90600052602060002090601602016000016006016002018054600181600116156101000203166002900480601f016020809104026020016040519081016040528092919081815260200182805460018160011615610100020316600290048015610e9c5780601f10610e7157610100808354040283529160200191610e9c565b820191906000526020600020905b815481529060010190602001808311610e7f57829003601f168201915b50505050509050610f78565b6002821415610f7757600360055481548110610ec057fe5b9060005260206000209060160201600001600b016002018054600181600116156101000203166002900480601f016020809104026020016040519081016040528092919081815260200182805460018160011615610100020316600290048015610f6b5780601f10610f4057610100808354040283529160200191610f6b565b820191906000526020600020905b815481529060010190602001808311610f4e57829003601f168201915b50505050509050610f78565b5b919050565b600060038210610ff5576040517f08c379a00000000000000000000000000000000000000000000000000000000081526004018080602001828103825260148152602001807f56616c756520646f6573206e6f7420657869737400000000000000000000000081525060200191505060405180910390fd5b600082141561102c5760036005548154811061100d57fe5b906000526020600020906016020160000160010160010154905061109b565b60018214156110635760036005548154811061104457fe5b906000526020600020906016020160000160060160010154905061109b565b600282141561109a5760036005548154811061107b57fe5b9060005260206000209060160201600001600b0160010154905061109b565b5b919050565b60606003600554815481106110b157fe5b90600052602060002090601602016013018054600181600116156101000203166002900480601f0160208091040260200160405190810160405280929190818152602001828054600181600116156101000203166002900480156111565780601f1061112b57610100808354040283529160200191611156565b820191906000526020600020905b81548152906001019060200180831161113957829003601f168201915b5050505050905090565b60008054906101000a900473ffffffffffffffffffffffffffffffffffffffff1673ffffffffffffffffffffffffffffffffffffffff163373ffffffffffffffffffffffffffffffffffffffff1614611221576040517f08c379a000000000000000000000000000000000000000000000000000000000815260040180806020018281038252601b8152602001807f4f6e6c7920746865206f776e65722063616e20646f20746869732e000000000081525060200191505060405180910390fd5b60018060008373ffffffffffffffffffffffffffffffffffffffff1673ffffffffffffffffffffffffffffffffffffffff16815260200190815260200160002060020160006101000a81548160ff02191690831515021790555050565b6060600382106112f6576040517f08c379a00000000000000000000000000000000000000000000000000000000081526004018080602001828103825260148152602001807f56616c756520646f6573206e6f7420657869737400000000000000000000000081525060200191505060405180910390fd5b60008214156113c55760036005548154811061130e57fe5b90600052602060002090601602016000016001016003018054600181600116156101000203166002900480601f0160208091040260200160405190810160405280929190818152602001828054600181600116156101000203166002900480156113b95780601f1061138e576101008083540402835291602001916113b9565b820191906000526020600020905b81548152906001019060200180831161139c57829003601f168201915b50505050509050611564565b6001821415611494576003600554815481106113dd57fe5b90600052602060002090601602016000016006016003018054600181600116156101000203166002900480601f0160208091040260200160405190810160405280929190818152602001828054600181600116156101000203166002900480156114885780601f1061145d57610100808354040283529160200191611488565b820191906000526020600020905b81548152906001019060200180831161146b57829003601f168201915b50505050509050611564565b6002821415611563576003600554815481106114ac57fe5b9060005260206000209060160201600001600b016003018054600181600116156101000203166002900480601f0160208091040260200160405190810160405280929190818152602001828054600181600116156101000203166002900480156115575780601f1061152c57610100808354040283529160200191611557565b820191906000526020600020905b81548152906001019060200180831161153a57829003601f168201915b50505050509050611564565b5b919050565b6006818154811061157657fe5b906000526020600020016000915054906101000a900473ffffffffffffffffffffffffffffffffffffffff1681565b600281815481106115b257fe5b906000526020600020016000915054906101000a900473ffffffffffffffffffffffffffffffffffffffff1681565b60008054906101000a900473ffffffffffffffffffffffffffffffffffffffff1673ffffffffffffffffffffffffffffffffffffffff163373ffffffffffffffffffffffffffffffffffffffff16148061168e575060011515600160003373ffffffffffffffffffffffffffffffffffffffff1673ffffffffffffffffffffffffffffffffffffffff16815260200190815260200160002060020160009054906101000a900460ff161515145b6116e3576040517f08c379a000000000000000000000000000000000000000000000000000000000815260040180806020018281038252603d815260200180612b1f603d913960400191505060405180910390fd5b60036040518060e00160405280604051806080016040528088815260200160076040518060a00160405290816000820154815260200160018201548152602001600282018054600181600116156101000203166002900480601f0160208091040260200160405190810160405280929190818152602001828054600181600116156101000203166002900480156117bb5780601f10611790576101008083540402835291602001916117bb565b820191906000526020600020905b81548152906001019060200180831161179e57829003601f168201915b50505050508152602001600382018054600181600116156101000203166002900480601f01602080910402602001604051908101604052809291908181526020018280546001816001161561010002031660029004801561185d5780601f106118325761010080835404028352916020019161185d565b820191906000526020600020905b81548152906001019060200180831161184057829003601f168201915b50505050508152602001600482015481525050815260200160076040518060a00160405290816000820154815260200160018201548152602001600282018054600181600116156101000203166002900480601f01602080910402602001604051908101604052809291908181526020018280546001816001161561010002031660029004801561192f5780601f106119045761010080835404028352916020019161192f565b820191906000526020600020905b81548152906001019060200180831161191257829003601f168201915b50505050508152602001600382018054600181600116156101000203166002900480601f0160208091040260200160405190810160405280929190818152602001828054600181600116156101000203166002900480156119d15780601f106119a6576101008083540402835291602001916119d1565b820191906000526020600020905b8154815290600101906020018083116119b457829003601f168201915b50505050508152602001600482015481525050815260200160076040518060a00160405290816000820154815260200160018201548152602001600282018054600181600116156101000203166002900480601f016020809104026020016040519081016040528092919081815260200182805460018160011615610100020316600290048015611aa35780601f10611a7857610100808354040283529160200191611aa3565b820191906000526020600020905b815481529060010190602001808311611a8657829003601f168201915b50505050508152602001600382018054600181600116156101000203166002900480601f016020809104026020016040519081016040528092919081815260200182805460018160011615610100020316600290048015611b455780601f10611b1a57610100808354040283529160200191611b45565b820191906000526020600020905b815481529060010190602001808311611b2857829003601f168201915b50505050508152602001600482015481525050815250815260200186815260200160008152602001858152602001848152602001838152602001600081525090806001815401808255809150506001900390600052602060002090601602016000909190919091506000820151816000016000820151816000015560208201518160010160008201518160000155602082015181600101556040820151816002019080519060200190611bf9929190612a81565b506060820151816003019080519060200190611c16929190612a81565b5060808201518160040155505060408201518160060160008201518160000155602082015181600101556040820151816002019080519060200190611c5c929190612a81565b506060820151816003019080519060200190611c79929190612a81565b50608082015181600401555050606082015181600b0160008201518160000155602082015181600101556040820151816002019080519060200190611cbf929190612a81565b506060820151816003019080519060200190611cdc929190612a81565b50608082015181600401555050505060208201518160100155604082015181601101556060820151816012019080519060200190611d1b929190612a81565b506080820151816013019080519060200190611d38929190612a81565b5060a0820151816014019080519060200190611d55929190612a81565b5060c0820151816015015550507f7b3a1b44c53fe7f81b0911d9350ce36a34f88aad4b4c7065e5cd08acb589c9f88484848460405180858152602001806020018060200180602001848103845287818151815260200191508051906020019080838360005b83811015611dd5578082015181840152602081019050611dba565b50505050905090810190601f168015611e025780820380516001836020036101000a031916815260200191505b50848103835286818151815260200191508051906020019080838360005b83811015611e3b578082015181840152602081019050611e20565b50505050905090810190601f168015611e685780820380516001836020036101000a031916815260200191505b50848103825285818151815260200191508051906020019080838360005b83811015611ea1578082015181840152602081019050611e86565b50505050905090810190601f168015611ece5780820380516001836020036101000a031916815260200191505b5097505050505050505060405180910390a150505050565b60045481565b60055481565b6060600360055481548110611f0357fe5b90600052602060002090601602016014018054600181600116156101000203166002900480601f016020809104026020016040519081016040528092919081815260200182805460018160011615610100020316600290048015611fa85780601f10611f7d57610100808354040283529160200191611fa8565b820191906000526020600020905b815481529060010190602001808311611f8b57829003601f168201915b5050505050905090565b6060600360055481548110611fc357fe5b90600052602060002090601602016012018054600181600116156101000203166002900480601f0160208091040260200160405190810160405280929190818152602001828054600181600116156101000203166002900480156120685780601f1061203d57610100808354040283529160200191612068565b820191906000526020600020905b81548152906001019060200180831161204b57829003601f168201915b5050505050905090565b60008054906101000a900473ffffffffffffffffffffffffffffffffffffffff1673ffffffffffffffffffffffffffffffffffffffff163373ffffffffffffffffffffffffffffffffffffffff16148061211f575060011515600160003373ffffffffffffffffffffffffffffffffffffffff1673ffffffffffffffffffffffffffffffffffffffff16815260200190815260200160002060020160009054906101000a900460ff161515145b612174576040517f08c379a000000000000000000000000000000000000000000000000000000000815260040180806020018281038252603d815260200180612b1f603d913960400191505060405180910390fd5b600380858154811061218257fe5b906000526020600020906016020160110154106121ea576040517f08c379a0000000000000000000000000000000000000000000000000000000008152600401808060200182810382526022815260200180612b5c6022913960400191505060405180910390fd5b6000600385815481106121f957fe5b9060005260206000209060160201601101541415612307576040518060a001604052806000815260200184815260200183815260200182815260200160036005548154811061224457fe5b9060005260206000209060160201601101548152506003858154811061226657fe5b9060005260206000209060160201600001600101600082015181600001556020820151816001015560408201518160020190805190602001906122aa929190612a81565b5060608201518160030190805190602001906122c7929190612a81565b50608082015181600401559050506001600385815481106122e457fe5b90600052602060002090601602016011016000828254019250508190555061253f565b60016003858154811061231657fe5b9060005260206000209060160201601101541415612424576040518060a001604052806000815260200184815260200183815260200182815260200160036005548154811061236157fe5b9060005260206000209060160201601101548152506003858154811061238357fe5b9060005260206000209060160201600001600601600082015181600001556020820151816001015560408201518160020190805190602001906123c7929190612a81565b5060608201518160030190805190602001906123e4929190612a81565b506080820151816004015590505060016003858154811061240157fe5b90600052602060002090601602016011016000828254019250508190555061253e565b60026003858154811061243357fe5b906000526020600020906016020160110154141561253d576040518060a001604052806000815260200184815260200183815260200182815260200160036005548154811061247e57fe5b906000526020600020906016020160110154815250600385815481106124a057fe5b9060005260206000209060160201600001600b01600082015181600001556020820151816001015560408201518160020190805190602001906124e4929190612a81565b506060820151816003019080519060200190612501929190612a81565b506080820151816004015590505060016003858154811061251e57fe5b9060005260206000209060160201601101600082825401925050819055505b5b5b7f75c2c4d7d3d783b1a0f46bd7a3d4b12be0650d184737dbe605319e1e3e29473e60016003868154811061256f57fe5b90600052602060002090601602016011015403848484604051808581526020018481526020018060200180602001838103835285818151815260200191508051906020019080838360005b838110156125d55780820151818401526020810190506125ba565b50505050905090810190601f1680156126025780820380516001836020036101000a031916815260200191505b50838103825284818151815260200191508051906020019080838360005b8381101561263b578082015181840152602081019050612620565b50505050905090810190601f1680156126685780820380516001836020036101000a031916815260200191505b50965050505050505060405180910390a150505050565b60016020528060005260406000206000915090508060000160009054906101000a900460ff16908060010154908060020160009054906101000a900460ff16905083565b60006003600554815481106126d457fe5b906000526020600020906016020160000160010160010154905060006003600554815481106126ff57fe5b90600052602060002090601602016000016006016000015460036005548154811061272657fe5b906000526020600020906016020160000160010160000154118015612796575060036005548154811061275557fe5b9060005260206000209060160201600001600b016000015460036005548154811061277c57fe5b906000526020600020906016020160000160010160000154115b156127cd576003600554815481106127aa57fe5b906000526020600020906016020160000160010160010154915060009050612985565b6003600554815481106127dc57fe5b90600052602060002090601602016000016001016000015460036005548154811061280357fe5b906000526020600020906016020160000160060160000154118015612873575060036005548154811061283257fe5b9060005260206000209060160201600001600b016000015460036005548154811061285957fe5b906000526020600020906016020160000160060160000154115b156128aa5760036005548154811061288757fe5b906000526020600020906016020160000160060160010154915060019050612984565b6003600554815481106128b957fe5b9060005260206000209060160201600001600101600001546003600554815481106128e057fe5b9060005260206000209060160201600001600b0160000154118015612950575060036005548154811061290f57fe5b90600052602060002090601602016000016006016000015460036005548154811061293657fe5b9060005260206000209060160201600001600b0160000154115b156129835760036005548154811061296457fe5b9060005260206000209060160201600001600b01600101549150600290505b5b5b8160058190555060005b600280549050811015612a3b57600060016000600284815481106129af57fe5b9060005260206000200160009054906101000a900473ffffffffffffffffffffffffffffffffffffffff1673ffffffffffffffffffffffffffffffffffffffff1673ffffffffffffffffffffffffffffffffffffffff16815260200190815260200160002060000160006101000a81548160ff021916908315150217905550808060010191505061298f565b507f4545df8bdbf258e643214cfbd34c6f316adf04fd11fd845524d9e54a0268d86b60055482604051808381526020018281526020019250505060405180910390a15050565b828054600181600116156101000203166002900490600052602060002090601f016020900481019282601f10612ac257805160ff1916838001178555612af0565b82800160010185558215612af0579182015b82811115612aef578251825591602001919060010190612ad4565b5b509050612afd9190612b01565b5090565b5b80821115612b1a576000816000905550600101612b02565b509056fe4f6e6c792074686520636f6e7472616374206465706c6f79657220616e642077686974656c69737465642075736572732063616e20646f20746869732e4d696c6573746f6e652068617320332070726f706f73616c7320616c726561647921a26469706673582212201b090badd57e2da4dc5391e6d5b40ff0fdaa4772e3cbaccc6de78ce3a91a3af264736f6c634300060c0033",
  "immutableReferences": {},
  "source": "pragma solidity ^0.6.12;\r\n// SPDX-License-Identifier: Unlicensed\r\n\r\ncontract Story {\r\n\r\n    // Structs\r\n\r\n    struct Voter {\r\n        bool voted;\r\n        uint vote;\r\n        bool whitelist;\r\n    }\r\n\r\n    struct Proposal {\r\n        uint256 voteCount;\r\n        uint256 nextMilestone; //When the vote wins, set next milestone\r\n        string description;\r\n        string name;\r\n        uint256 proposalID;\r\n    }\r\n\r\n    struct milestoneProposals {\r\n        uint256 milestoneID;\r\n        Proposal proposal1;\r\n        Proposal proposal2;\r\n        Proposal proposal3;\r\n    }\r\n\r\n    struct Milestone {\r\n    milestoneProposals proposals;\r\n    uint256 ID;\r\n    uint256 proposalID;\r\n    string description;\r\n    string name;\r\n    string question;\r\n    uint256 winningProposal;\r\n\r\n    }\r\n\r\n\r\n    // Variables\r\n\r\n    address private Owner;\r\n    mapping (address => Voter) public Voters;\r\n    address[] public voterList;\r\n    Milestone[] private milestones;\r\n    uint256 public currentVotes = 0;\r\n    uint256 public currentMilestone = 0;\r\n    address[] public Whitelist;\r\n    Proposal tempProposal = Proposal({voteCount: 0, nextMilestone: 0, description: \"null\", name: \"null\", proposalID: 0});\r\n\r\n\r\n    // Events\r\n\r\n    event Voted(\r\n        address voter,\r\n        uint256 proposal\r\n        );\r\n\r\n    event NewProposal(\r\n        uint256 proposalID,\r\n        uint256 nextMilestone,\r\n        string description,\r\n        string name\r\n        );\r\n\r\n    event NewMilestone(\r\n        uint256 milestoneID,\r\n        string description,\r\n        string name,\r\n        string question\r\n        );\r\n\r\n    event Win(\r\n        uint256 newMilestone,\r\n        uint256 proposalID\r\n        );\r\n\r\n    // Modifiers\r\n\r\n    modifier OnlyOwner() {\r\n        require(msg.sender == Owner, \"Only the owner can do this.\");\r\n        _;\r\n    }\r\n\r\n    modifier OnlyWhitelist() {\r\n        require(msg.sender == Owner || Voters[msg.sender].whitelist == true, \"Only the contract deployer and whitelisted users can do this.\");\r\n        _;\r\n    }\r\n\r\n    constructor() public {\r\n        Owner = msg.sender;\r\n    }\r\n\r\n\r\n\r\n    // Functions\r\n\r\n    function createProposal(uint256 _milestone, uint256 _nextMilestone, string memory _message, string memory _name) public OnlyWhitelist {\r\n        require(\r\n            milestones[_milestone].proposalID < 3,\r\n            \"Milestone has 3 proposals already!\"\r\n            );\r\n            if(milestones[_milestone].proposalID == 0){\r\n            milestones[_milestone].proposals.proposal1 = Proposal({voteCount: 0, nextMilestone: _nextMilestone, description: _message, name: _name, proposalID: milestones[currentMilestone].proposalID});\r\n            milestones[_milestone].proposalID += 1;}\r\n            else if(milestones[_milestone].proposalID == 1){\r\n            milestones[_milestone].proposals.proposal2 = Proposal({voteCount: 0, nextMilestone: _nextMilestone, description: _message, name: _name, proposalID: milestones[currentMilestone].proposalID});\r\n            milestones[_milestone].proposalID += 1;}\r\n            else if(milestones[_milestone].proposalID == 2){\r\n            milestones[_milestone].proposals.proposal3 = Proposal({voteCount: 0, nextMilestone: _nextMilestone, description: _message, name: _name, proposalID: milestones[currentMilestone].proposalID});\r\n            milestones[_milestone].proposalID += 1;}\r\n\r\n            emit NewProposal(milestones[_milestone].proposalID - 1, _nextMilestone, _message, _name);\r\n    }\r\n\r\n    function createMilestone(uint256 _milestoneID, string memory _message, string memory _name, string memory _question) public OnlyWhitelist {\r\n            milestones.push(Milestone({ID: _milestoneID, proposalID: 0, description: _message, name: _name, question: _question, winningProposal: 0, proposals: milestoneProposals({proposal1: tempProposal, proposal2: tempProposal, proposal3: tempProposal, milestoneID: _milestoneID})}));\r\n            emit NewMilestone(_milestoneID, _message, _name, _question);\r\n    }\r\n\r\n    function whiteList(address _user) public OnlyOwner {\r\n            Voters[_user].whitelist = true;\r\n    }\r\n\r\n\r\n\r\n    function vote(uint256 _proposalID) public {\r\n        require(\r\n        msg.sender.balance >= 1 ether,\r\n        \"Insufficient Voting Balance.\"\r\n        );\r\n        require(\r\n        Voters[msg.sender].voted != true,\r\n        \"You have already voted!\"\r\n        );\r\n        Voters[msg.sender].voted = true;\r\n        voterList.push(msg.sender);\r\n        if(_proposalID == 0){\r\n        milestones[currentMilestone].proposals.proposal1.voteCount += 1;\r\n        }\r\n        if(_proposalID == 1){\r\n        milestones[currentMilestone].proposals.proposal2.voteCount += 1;\r\n        }\r\n        if(_proposalID == 2){\r\n        milestones[currentMilestone].proposals.proposal3.voteCount += 1;\r\n        }\r\n        currentVotes += 1;\r\n        if (currentVotes == 1){\r\n            declareWinner();\r\n            currentVotes = 0;\r\n        }\r\n\r\n        emit Voted(msg.sender, _proposalID);\r\n    }\r\n\r\n    function declareWinner() private {\r\n       uint256 currentWinner = milestones[currentMilestone].proposals.proposal1.nextMilestone;\r\n       uint256 winningID = 0;\r\n       if(milestones[currentMilestone].proposals.proposal1.voteCount > milestones[currentMilestone].proposals.proposal2.voteCount && milestones[currentMilestone].proposals.proposal1.voteCount > milestones[currentMilestone].proposals.proposal3.voteCount){\r\n           currentWinner = milestones[currentMilestone].proposals.proposal1.nextMilestone;\r\n           winningID = 0;\r\n       }\r\n       else if(milestones[currentMilestone].proposals.proposal2.voteCount > milestones[currentMilestone].proposals.proposal1.voteCount && milestones[currentMilestone].proposals.proposal2.voteCount > milestones[currentMilestone].proposals.proposal3.voteCount){\r\n           currentWinner = milestones[currentMilestone].proposals.proposal2.nextMilestone;\r\n           winningID = 1;\r\n       }\r\n       else if(milestones[currentMilestone].proposals.proposal3.voteCount > milestones[currentMilestone].proposals.proposal1.voteCount && milestones[currentMilestone].proposals.proposal3.voteCount > milestones[currentMilestone].proposals.proposal2.voteCount){\r\n           currentWinner = milestones[currentMilestone].proposals.proposal3.nextMilestone;\r\n           winningID = 2;\r\n       }\r\n      currentMilestone = currentWinner;\r\n      for(uint256 i = 0; i < voterList.length; i++){\r\n          Voters[voterList[i]].voted = false;\r\n      }\r\n      emit Win(currentMilestone, winningID);\r\n    }\r\n\r\n\r\n     function getProposalNextMilestone(uint256 proposalNum) public view returns (uint256) {\r\n         require(\r\n             proposalNum < 3,\r\n             \"Value does not exist\"\r\n             );\r\n        if(proposalNum == 0){\r\n            return milestones[currentMilestone].proposals.proposal1.nextMilestone;\r\n        }\r\n        else if(proposalNum == 1){\r\n            return milestones[currentMilestone].proposals.proposal2.nextMilestone;\r\n        }\r\n         else if(proposalNum == 2){\r\n            return milestones[currentMilestone].proposals.proposal3.nextMilestone;\r\n        }\r\n    }\r\n\r\n    function getProposalDescription(uint256 proposalNum) public view returns (string memory) {\r\n         require(\r\n             proposalNum < 3,\r\n             \"Value does not exist\"\r\n             );\r\n       if(proposalNum == 0){\r\n            return milestones[currentMilestone].proposals.proposal1.description;\r\n        }\r\n        else if(proposalNum == 1){\r\n            return milestones[currentMilestone].proposals.proposal2.description;\r\n        }\r\n         else if(proposalNum == 2){\r\n            return milestones[currentMilestone].proposals.proposal3.description;\r\n        }\r\n    }\r\n\r\n      function getProposalName(uint256 proposalNum) public view returns (string memory) {\r\n         require(\r\n             proposalNum < 3,\r\n             \"Value does not exist\"\r\n             );\r\n       if(proposalNum == 0){\r\n            return milestones[currentMilestone].proposals.proposal1.name;\r\n        }\r\n        else if(proposalNum == 1){\r\n            return milestones[currentMilestone].proposals.proposal2.name;\r\n        }\r\n         else if(proposalNum == 2){\r\n            return milestones[currentMilestone].proposals.proposal3.name;\r\n        }\r\n    }\r\n\r\n        function getMilestoneDescription() public view returns (string memory) {\r\n        return milestones[currentMilestone].description;\r\n    }\r\n\r\n        function getMilestoneQuestion() public view returns (string memory) {\r\n        return milestones[currentMilestone].question;\r\n    }\r\n\r\n        function getMilestoneName() public view returns (string memory) {\r\n        return milestones[currentMilestone].name;\r\n    }\r\n}\r\n",
  "sourcePath": "C:/Users/Ulyss/pepe_vote_test/src/contracts/Pepe_vote.sol",
  "compiler": {
    "name": "solc",
    "version": "0.6.12+commit.27d51765.Emscripten.clang"
  },
  "schemaVersion": "3.4.1",
  "updatedAt": "2021-05-25T20:15:41.116Z",
  "networkType": "ethereum",
  "devdoc": {
    "kind": "dev",
    "methods": {},
    "version": 1
  },
  "userdoc": {
    "kind": "user",
    "methods": {},
    "version": 1
  }
}